:100000000C9414010C94D2250C9403260C943426E1
:100010000C9465260C9496260C94C7260C94F8260E
:100020000C9429270C9441010C9441010C9441013A
:100030000C9441010C9441010C9441010C94410138
:100040000C9441010C94732C0C9441010C944101CB
:100050000C9441010C9441010C9441010C94A32790
:100060000C9441010C944F200C944B210C944101B1
:100070000C9441010C9441010C9441010C944101F8
:100080000C94452C0C9441010C9441010C944101B9
:100090000C948E200C948A210C9441010C94410103
:1000A0000C9441010C9441010C94172C0C944101C7
:1000B0000C9441010C9441010C9441010C94E92BE6
:1000C0000C9441010C9441010C9441010C94CD20FD
:1000D0000C94C9210C9441010C940C210C9408221D
:1000E0000C94410105A84CCDB2D44EB93836A902C2
:1000F0000C50B9918688083CA6AAAA2ABE00000026
:10010000803F00002100240027002A002D0030003D
:10011000330001010000040107010A010000220070
:10012000250028002B002E003100340002010000C1
:10013000050108010B010000200023002600290012
:100140002C002F003200000100000301060109010C
:1001500005050505070508080808020202020A0A43
:100160000808040404040101010101010101030361
:10017000030303030303040707070C0C0C0C0C0C0C
:100180000C0C0202020206060606060606060B0B09
:100190000B0B0B0B0B0B010210202008081020404A
:1001A000102040800201020108040201010204083B
:1001B00010204080804020100804020180040201C9
:1001C0008040201008040201080402010102040812
:1001D0001020408001020408102040800000090A1D
:1001E00002080B0C0D0706030401000000000000CC
:1001F00000000000000000000000000000000000FF
:10020000000000000000000011100F0000000000BE
:1002100000000000000000000000000000000000DE
:1002200000007823AE24A12C11241FBECFEFD1E211
:10023000DEBFCDBF00E00CBF13E0A0E0B2E0EEE90E
:10024000F6E600E00BBF02C007900D92AA3AB10794
:10025000D9F71BBE18E0AAEAB3E001C01D92A4338F
:10026000B107E1F712E0C8E2D2E004C02297FE0134
:100270000E944933C232D107C9F70E94DB2F0C9488
:100280004D330C9400000F931F93CF93DF93689F1F
:100290008001699F100D789F100D1124C8010E94E4
:1002A0005F01EC01009729F060E070E0A8010E9476
:1002B0006A02CE01DF91CF911F910F910895CF93E4
:1002C000DF93BC018230910510F462E070E0A091F0
:1002D0003208B0913308ED01E0E0F0E040E050E09A
:1002E00021C0888199818617970769F48A819B814B
:1002F000309719F09383828304C0909333088093DE
:100300003208FE0134C06817790738F441155105E9
:1003100019F08417950708F4AC01FE018A819B81CE
:100320009C01E9012097E9F641155105A9F1CA019F
:10033000861B970B049708F4BA01E0E0F0E02AC0AE
:100340008D919C91119784179507F9F4641775079F
:1003500081F412968D919C911397309719F09383A5
:10036000828304C09093330880933208FD01329653
:100370004CC0CA01861B970BFD01E80FF91F619362
:10038000719302978D939C9340C0FD01828193816C
:100390009C01D9011097A1F6809130089091310805
:1003A000892B41F48091FF029091000390933108D2
:1003B000809330084091010350910203411551058B
:1003C00041F44DB75EB78091FD029091FE02481B4B
:1003D000590B2091300830913108CA01821B930BD0
:1003E0008617970780F0AB014E5F5F4F8417950724
:1003F00050F0420F531F5093310840933008F901D9
:100400006193719302C0E0E0F0E0CF01DF91CF9102
:100410000895CF93DF93009709F450C0EC01229721
:100420001B821A82A0913208B0913308109709F10B
:1004300040E050E0AC17BD0708F1BB83AA83FE0182
:1004400021913191E20FF31FAE17BF0779F48D911F
:100450009C911197280F391F2E5F3F4F39832883B6
:1004600012968D919C9113979B838A834115510518
:1004700071F4D0933308C093320820C012968D9146
:100480009C911397AD01009711F0DC01D3CFFA01D5
:10049000D383C28321913191E20FF31FCE17DF077F
:1004A00069F488819981280F391F2E5F3F4FFA0127
:1004B000318320838A819B8193838283DF91CF91D3
:1004C0000895FB01DC0102C001900D9241505040A3
:1004D000D8F70895DC0101C06D9341505040E0F71A
:1004E0000895FB01DC018D91019080190110D9F371
:1004F000990B0895AF92BF92CF92DF92EF92FF9245
:100500000F931F935C016A017B0100E010E020E083
:1005100030E00E94B20BC501B701A60101E010E076
:1005200020E030E00E94B20B1F910F91FF90EF90FE
:10053000DF90CF90BF90AF90089560E070E080E0D2
:1005400090E00E948A0B61E070E080E090E00E9401
:100550008A0B08950F931F938C0160E070E080E098
:1005600090E0A8010E94210B61E070E080E090E043
:10057000A8010E94210B1F910F910895CF92DF9245
:10058000EF92FF920F931F93DF93CF9300D00F92C0
:10059000CDB7DEB77C018091B0039091B1038E1589
:1005A0009F050CF58091AE039091AF03009731F059
:1005B0000E9409021092B1031092B003C7010E9479
:1005C0005F019093AF038093AE03009741F400E086
:1005D00010E083E0C82ED12CCC0EDD1E1CC0F092A2
:1005E000B103E092B00300E010E06E010894C11C7A
:1005F000D11C27C08091AC039091AD0361E070E005
:10060000A60122EB33E00E944D1C882311F58B815B
:100610009C81080F191F0E151F0564F31AC0B7013E
:10062000601B710B200F311F8091AC039091AD03C3
:10063000A6010E944D1C882361F489819A81080FCC
:10064000191F2091AE033091AF030E151F053CF327
:1006500002C020E030E0C9010F900F900F900F9082
:10066000CF91DF911F910F91FF90EF90DF90CF908E
:100670000895AF92BF92CF92DF92FF920F931F9394
:10068000DF93CF93CDB7DEB72A970FB6F894DEBFCE
:100690000FBECDBF8B016A01A0E0B0E08B839C83CD
:1006A000AD83BE83CB01AA2797FDA095BA2F8F8378
:1006B0009887A987BA878091AC039091AD0368E0D1
:1006C00070E0AE014D5F5F4F5E010894A11CB11C4C
:1006D00095010E94481BF82E8823B9F489819A81DC
:1006E000089799F4C114D10491F08091AC039091D2
:1006F000AD03B801A60195010E94481B882329F487
:1007000089819A818017910711F0FF24F3948F2D2E
:100710002A960FB6F894DEBF0FBECDBFCF91DF9102
:100720001F910F91FF90DF90CF90BF90AF900895F1
:10073000AF92BF92CF92DF92EF92FF920F931F93EF
:10074000DF93CF93CDB7DEB72C970FB6F894DEBF0B
:100750000FBECDBF7C016B01CA0159010E94BE02D0
:10076000FC010097D1F481E090E0A0E0B0E08D833F
:100770009E83AF83B8878FEF9FEFAFEFBFEF89877F
:100780009A87AB87BC87C70168E070E0AE014B5F1A
:100790005F4F0E94390311E04FC000811181228117
:1007A000338109831A832B833C838BE1E816F104A0
:1007B00061F08CE1E816F10451F53496C601BF01F1
:1007C000A90198010E94931006C03496C601B50194
:1007D000AF010E948214182F8823C9F029813A8121
:1007E0004B815C8181E090E0A0E0B0E08D839E834E
:1007F000AF83B88729873A874B875C87C70168E052
:1008000070E0AE014B5F5F4F0E94390315C08981D4
:100810009A81AB81BC811D821E821F8218868987C6
:100820009A87AB87BC87C70168E070E0AE014B5F79
:100830005F4F0E943903182F812F2C960FB6F89422
:10084000DEBF0FBECDBFCF91DF911F910F91FF9003
:10085000EF90DF90CF90BF90AF900895EF92FF920E
:100860000F931F93DF93CF93CDB7DEB72C970FB6BF
:10087000F894DEBF0FBECDBF8C01CB017A010E9480
:10088000BE02FC010097D1F481E090E0A0E0B0E06E
:100890008D839E83AF83B8878FEF9FEFAFEFBFEF5E
:1008A00089879A87AB87BC87C80168E070E0AE0192
:1008B0004B5F5F4F0E94390381E028C060817181E6
:1008C0008281938169837A838B839C830D311105A7
:1008D00031F00E31110531F40E945D0A03C0A70109
:1008E0000E94100A89819A81AB81BC811D821E827F
:1008F0001F82188689879A87AB87BC87C80168E002
:1009000070E0AE014B5F5F4F0E9439032C960FB62B
:10091000F894DEBF0FBECDBFCF91DF911F910F9135
:10092000FF90EF9008950F931F938C011092AB03EB
:100930001092AA0360E070E080E090E0A8010E94BD
:10094000751361E070E080E090E0A8010E947513EB
:100950008091AC039091AD030E94671A1F910F9193
:100960000895CF92DF92EF92FF920F931F936B0146
:100970007C0189019A018091AC039091AD03B7018C
:10098000A6010E94661A1F910F91FF90EF90DF90D1
:10099000CF9008951F938091AC039091AD030E9476
:1009A0004D1A182F882361F460E070E080E090E039
:1009B0000E947E1261E070E080E090E00E947E1272
:1009C000812F1F9108952F923F924F925F926F92C5
:1009D0007F928F929F92AF92BF92CF92DF92EF92CF
:1009E000FF920F931F93DF93CF93CDB7DEB72A9774
:1009F0000FB6F894DEBF0FBECDBF5B016C012A01BC
:100A00008091AB03882309F46FC08E010D5F1F4FE7
:100A1000C801B601A50192010E9485131E01089428
:100A2000211C311C09871A8752C00D811E81060DB9
:100A3000171DF801E080F180428153818091AC0361
:100A40009091AD03B70191010E94481B882309F0E2
:100A500048C089819A818E159F0509F042C0F8012E
:100A6000E480F5801E141F048CF446815781809128
:100A7000AC039091AD03B70191010E94481B8823FC
:100A800081F589819A818E159F0559F5C401880FDA
:100A9000991FEF81F885E80FF91F80819181B601D8
:100AA000A5010E94890A0894811C911C88E090E0AD
:100AB000680E791E8B819C81881699060CF4B5CF3F
:100AC00089859A85B601A50192010E9485138B81C3
:100AD0009C811816190644F48824992466247724E6
:100AE000E9CFC2010E9493042A960FB6F894DEBFA4
:100AF0000FBECDBFCF91DF911F910F91FF90EF906F
:100B0000DF90CF90BF90AF909F908F907F906F902D
:100B10005F904F903F902F9008951F93CF93DF9356
:100B2000EC0160E070E080E090E00E94F30960E09A
:100B300070E080E090E0AE010E94E30460E070E0CD
:100B400080E090E0AE010E94A7128091AE039091E8
:100B5000AF03009731F00E9409021092AF03109288
:100B6000AE0361E070E080E090E00E94F30961E094
:100B700070E080E090E0AE010E94E30461E070E08C
:100B800080E090E0AE010E94A7128091AE039091A8
:100B9000AF03009731F00E9409021092AF03109248
:100BA000AE038091AA03882311F410E00BC084E106
:100BB00090E060E070E040E050E00E943903182FC0
:100BC0001092AA038091AB03882341F01092AB03EB
:100BD00081E090E090930603809305038091AC033D
:100BE0009091AD030E946C1E8091AC039091AD0377
:100BF0000E94651A812FDF91CF911F9108952F9246
:100C00003F924F925F926F927F928F929F92AF929C
:100C1000BF92CF92DF92EF92FF920F931F93DF93D9
:100C2000CF93CDB7DEB7A0970FB6F894DEBF0FBE57
:100C3000CDBF6C017B012A018091AB03882359F45D
:100C40008091AC039091AD036BEA73E00E944F1A60
:100C5000882309F005C38091AB03882309F400C3FE
:100C60001A82198200E010E058E0652E712C4BE0EA
:100C7000842E912C8C0E9D1E5E010894A11CB11C2B
:100C8000B301601B710B9401200F311F8091AC03E5
:100C90009091AD03A5010E944D1C282F882351F48B
:100CA00089819A81080F191F0115110519F0083063
:100CB000110534F389819A81222309F0CEC21816D6
:100CC00019060CF0CDC28091AA03882321F41B865B
:100CD0001C861D861E868B859C85AD85BE858630CF
:100CE0009105A105B10509F468C087309105A105FA
:100CF000B10510F582309105A105B10509F4ADC229
:100D000083309105A105B10558F40097A105B105FF
:100D100009F468C00197A105B10509F0A1C23EC25E
:100D200084309105A105B10509F458C10597A105C5
:100D3000B10509F095C274C189309105A105B105CD
:100D400009F483C28A309105A105B10558F48730B2
:100D50009105A105B105D1F10897A105B10509F0EB
:100D60007FC226C08B309105A105B10509F469C287
:100D70008B309105A105B10508F456C20F97A10566
:100D8000B10509F06DC2D6011696ED91FC91179749
:100D900080819181A281B3818B839C83AD83BE834B
:100DA00085E190E064E070E0AE014D5F5F4F2DC1E2
:100DB0006F8578898DE190E04CC24F8558898BE131
:100DC00090E0B601970103E013E009C04F85588910
:100DD0008CE190E0B6012FEF3FEF04E013E00E94BA
:100DE00098033EC2D6011496ED91FC9115970081AF
:100DF0001181F801F281FD8FD8011396BC91BE8F4D
:100E0000F801F081FB8FD8011196BC91BC8F30E1C5
:100E1000832E912CA12CB12C8B8A9C8AAD8ABE8A00
:100E200088E090E0A0E0B0E08F8B988FA98FBA8F18
:100E300023E1422E512C4C0E5D1E8091AC0390910B
:100E4000AD0368E070E0A2013E010894611C711CD2
:100E500093010E94481B882309F0BAC089819A81B6
:100E6000089709F0B5C0F801E080F18088E090E0D3
:100E7000E80EF91EEE0CFF1CEE0CFF1CC7010E94D1
:100E80005F018F8F98A38C011C01009709F4A2C009
:100E90008B8A9C8AAD8ABE8AC701AA2797FDA09536
:100EA000BA2F8F8B988FA98FBA8F8091AC039091B6
:100EB000AD0368E070E0A20193010E94481B882303
:100EC00009F088C089819A81089709F083C04B8D09
:100ED0005C8DD6011296ED91FC911397A080B180A4
:100EE000C280D380D801AD92BD92CD92DC9213978F
:100EF000A480B580C680D7801496AD92BD92CD9265
:100F0000DC921797A084B184C284D3841896AD92E2
:100F1000BD92CD92DC921B9784859585A685B78579
:100F2000F80184879587A687B787D80150961D92C8
:100F30001D921D921C92539784E090E0A0E0B0E0D7
:100F4000848B958BA68BB78B8091050390910603BC
:100F5000A0E0B0E0808F918FA28FB38FCA01AA2743
:100F600097FDA095BA2F848F958FA68FB78F2D8D63
:100F70003E8DC901BC012F8D38A1C901FC0120E0C3
:100F800030E00CC0DB018D919D91BD01A0E0B0E08F
:100F9000848F958FA68FB78F2F5F3F4F349624177E
:100FA000350784F38091AC039091AD03B701A8019C
:100FB0009E012F5F3F4F0E94481B882359F489816F
:100FC0009A818E159F0531F481E08093AA0302C0B7
:100FD00022243324C1010E94090242C18F859889CD
:100FE0000E94BE02BC018E01095F1F4F009781F471
:100FF00081E090E0A0E0B0E08F839887A987BA876E
:1010000082E190E064E070E0A8010E94390328C109
:10101000C6010E94790F1F82188619861A86F0CFA2
:10102000D6011496ED91FC9115970190F081E02D79
:10103000A084B184A114B10409F495C0D5016D90C8
:101040007C908280938000E010E060E070E040E0FF
:1010500050E021C0F501A281B381A40FB51F129603
:10106000ED91FC911397EE0FFF1FE80DF91D208104
:10107000318116968D919C911797DC012A9FC001B2
:101080002B9F900D3A9F900D1124080F191F6F5F31
:101090007F4F485F5F4F66157705E4F283E190E08C
:1010A000A0E0B0E08B8B9C8BAD8BBE8BC801AA27D8
:1010B00097FDA095BA2F8F8B988FA98FBA8F8091AB
:1010C000AC039091AD0368E070E0AE014D5E5F4F00
:1010D0006E010894C11CD11C96010E94481B8823F4
:1010E00009F0BEC089819A81089709F0B9C0EE2441
:1010F000FF2400E010E0260132C0F501A281B38197
:10110000A00FB11F1296ED91FC911397EE0FFF1FE8
:10111000E80DF91D2081318116968D919C911797CC
:10112000289F6001299FD00C389FD00C11244D912D
:101130005C918091AC039091AD03B60192010E9445
:10114000481B882309F08CC0085F1F4F89819A8152
:101150008C159D0509F084C00894E11CF11CE6146F
:10116000F7045CF27DC083E190E0A0E0B0E08B8BFF
:101170009C8BAD8BBE8B1F8A188E198E1A8E809118
:10118000AC039091AD0368E070E0AE014D5E5F4F3F
:101190009E012F5F3F4F0E94481B62C081E190E09B
:1011A00060E070E040E050E00E943903882309F0DD
:1011B00057C060E070E080E090E00E94F309809109
:1011C000B503882339F060E070E080E090E0A7018B
:1011D0000E94E30460E070E080E090E0A7010E94DC
:1011E000A71261E070E080E090E00E94F309809136
:1011F000B503882339F061E070E080E090E0A7015A
:101200000E94E30461E070E080E090E0A7010E94AA
:10121000A7121092AB031092AA038091AC03909195
:10122000AD030E945C1A1CC081E090E09093B4036F
:101230008093B30386E190E060E070E040E050E02E
:10124000E4CE81E0D2018C930BC06F8578898EE16A
:1012500090E0A7010E942E0403C0C7010E949304DE
:10126000A0960FB6F894DEBF0FBECDBFCF91DF9131
:101270001F910F91FF90EF90DF90CF90BF90AF90B4
:101280009F908F907F906F905F904F903F902F90A6
:1012900008950F931F938C0160E070E080E090E070
:1012A000A8010E94E30461E070E080E090E0A80102
:1012B0000E94E3041F910F9108958091AC039091D7
:1012C000AD030E945F1A08950F931F93CF93DF938E
:1012D000EC018B010E94621A9093AD038093AC03E2
:1012E000009719F4C0E0D2E007C0BE01A8010E9437
:1012F000EA1DEC01009751F08091AC039091AD0391
:101300000E94651A1092AD031092AC03CE01DF91DA
:10131000CF911F910F9108950895089580E090E076
:1013200060E070E00E94640908950E948D050895B0
:101330000E94CA0408950E94AA0208950E949D0274
:1013400008950E947A020895CF93DF939C01EB01E8
:101350008091050390910603049731F0C9010E9422
:10136000FF05CE010E944909DF91CF910895EF92C8
:10137000FF920F931F93CF93DF937C018B01EA01C0
:101380000E945D09882399F41BC060E070E080E052
:1013900090E028ED38EB45E050E00E94B104C70131
:1013A000B801AE010E94FF05C8010E944909809161
:1013B000B3039091B403892B19F48881882329F30E
:1013C0008091050390910603049731F083E090E04B
:1013D0009093060380930503DF91CF911F910F91A6
:1013E000FF90EF90089524E430E0629FF001639F46
:1013F000F00D729FF00D1124EA54FC4F82899389FD
:101400000497029760F485E090E0938B828B8FEFD6
:101410009FEFAFEFBFEF828F938FA48FB58F0895AB
:10142000CF93DF9324E430E0629FD001639FB00D3F
:10143000729FB00D1124AA54BC4F1092B5039D9613
:101440001C921E929C9760E070E020E030E0C1E0CA
:10145000D0E019C01A96ED91FC911B97E20FF31F93
:10146000828193811816190654F48481958197839B
:1014700086839187808713861286D183C0836F5FAE
:101480007F4F225F3F4F6417750724F39B961C9292
:101490001E929A97D9961C921E92D897FD01FE969D
:1014A000108211821282138282E090E053969C9304
:1014B0008E935297DF91CF91089524E430E0629F9C
:1014C000F001639FF00D729FF00D1124EA54FC4F60
:1014D0008289938981309105D8F08530910518F083
:1014E0000597B1F40DC08FEF9FEFAFEFBFEF828F85
:1014F000938FA48FB58F85E090E0938B828B0895B6
:101500008FEF9FEFAFEFBFEF828F938FA48FB58FD9
:10151000089524E430E0429FF001439FF00D529F74
:10152000F00D1124EA54FC4F9C01220F331FC90116
:1015300043E0880F991F4A95E1F7821B930B0284C1
:10154000F385E02DE80FF91F81E08093B503228534
:1015500033853187208740E050E0868197812817C6
:10156000390711F441E050E0518340830895EF9230
:10157000FF920F931F93CF93DF93EC01DA01F901F0
:10158000EC80FD800A811B814D915C91119728852B
:1015900039852417350720F088819981892BB1F18D
:1015A0000E0D1F1DC801841B950B2E193F09280F16
:1015B000391F26173707ECF1460F571F2D913C9125
:1015C00011974017510728F4718360833383228376
:1015D00026C091838083338322839B01281B390B90
:1015E00035832483121613061CF080E090E002C0BD
:1015F0008C819D81978386838C819D812481358117
:10160000820F931F8D939C9380E014C0241B350B95
:101610002617370774F071836083538342831582E2
:101620001482178216828D919C911197860F971FB5
:10163000E9CF81E0DF91CF911F910F91FF90EF9063
:101640000895EF92FF920F931F93CF93DF937B0147
:101650008C01FA0184E490E0E89EE001E99ED00D5F
:10166000F89ED00D1124CA54DC4F8A899B890097BB
:1016700009F449C00197C1F48AA59BA52A8D3B8D29
:101680004C8D5D8D01969BA78AA70197AA2797FD90
:10169000A095BA2F82179307A407B507A1F5C80133
:1016A000B701AF010E94100A8A899B89039759F5F7
:1016B0008AA59BA52E8D3F8D48A159A101969BA778
:1016C0008AA70197AA2797FDA095BA2F821793079B
:1016D000A407B507C4F08EAD9FAD9BA78AA784E091
:1016E00090E09B8B8A8B8AAD9BADACADBDAD1816DF
:1016F00019061A061B063CF4FE01EE5BFF4F81E063
:1017000090E091838083DF91CF911F910F91FF90A3
:10171000EF90089524E430E0629FF001639FF00DA4
:10172000729FF00D1124EA54FC4F8289938900972F
:10173000C1F00497B1F482A593A5019693A782A75F
:10174000AA2797FDA095BA2F26893789408D518DFC
:1017500082179307A407B50721F485E090E0938BE7
:10176000828B08952F923F924F925F926F927F9259
:101770008F929F92AF92BF92CF92DF92EF92FF92A1
:101780000F931F93DF93CF93CDB7DEB7CC54D040E8
:101790000FB6F894DEBF0FBECDBF27969FAF8EAFBA
:1017A00027974DA75EA76FA778AB2B960CAF1DAF01
:1017B0002EAF3FAF2B9784E490E029962EAD3FAD3E
:1017C0002997289F4001299F900C389F900C112445
:1017D00046EB53E0840E951ED4011A960D90BC91F1
:1017E000A02D2596BFAFAEAF2597F40182899389CE
:1017F000029709F025C186A597A5A0A9B1A90097D0
:10180000A105B10529F484E090E0938B828B18C187
:10181000D40154968D919C9155972796EEADFFADCE
:101820002797E817F90709F00BC1D6962D913C913F
:10183000D7973EAF2DAF1DAA1EAA1FAA18AE1CAA8D
:101840001BAACBC0D401D2964D905C90D397EBA944
:10185000FCA94E0E5F1ED20112960D90BC91A02DD8
:10186000BCAFABAFB695A795B695A795BAAFA9AFE4
:10187000F40180AD91AD892B09F489C0E6A0F7A0F1
:1018800000A511A56DAC7EACD2012D903C902196A7
:101890001FAE1EAE219771C0F40182A193A1892BC6
:1018A00061F1D101AD90BD90CD90DC90C601B50144
:1018B000A80197010E94053288235CF0F301608142
:1018C000718182819381A80197010E94DE3087FD9A
:1018D00098C0C601B501A80197010E9405321816EB
:1018E00064F4D3016D917D918D919C91A801970134
:1018F0000E94DE30882309F484C0F40184A195A1FC
:10190000892B61F1D101AD90BD90CD90DC90C601E5
:10191000B501A80197010E94DE3088235CF4F30131
:101920006081718182819381A80197010E940532B3
:1019300087FF67C0C601B501A80197010E94DE308C
:10194000882361F4D3016D917D918D919C91A801C3
:1019500097010E94053218160CF453C02196EEAD83
:10196000FFAD219731962196FFAFEEAF219724E08E
:1019700030E0620E731E220E331E21964EAD5FAD17
:10198000219789AD9AAD481759070CF485CFD2013C
:101990006C9111967C918DAD9EAD4BAD5CAD0E946E
:1019A0006102E9ADFAADEE0FFF1FEE0FFF1F2DAD87
:1019B0003EAD2E0F3F1F3EAF2DAF8DA99EA9AFA903
:1019C000B8AD0196A11DB11D8DAB9EABAFABB8AF4D
:1019D000ABA9BCA91496BCABABABF40186A597A58B
:1019E000A0A9B1A92DA93EA94FA958AD281739071B
:1019F0004A075B070CF426CF81E090E091AF80AFFF
:101A00001FC0F401868D978DA0A1B1A10097A105FB
:101A1000B10549F484E090E0938B828B86AD97AD5D
:101A200093A782A70DC083E090E0D40153969C93C6
:101A30008E93529781E090E09B969C938E939A9719
:101A4000F401828993898230910571F482AD93AD5E
:101A5000A4ADB5AD181619061A061B060CF02FC258
:101A6000A1E02A2E312C05C0049709F028C22224B7
:101A7000332427968EAD9FAD2797880F991F5C0161
:101A8000E3E0AA0CBB1CEA95E1F7A81AB90A25966F
:101A90002EAD3FAD2597A20EB31ED50112966D91C6
:101AA0007C9113976115710519F480E090E0FAC1FB
:101AB000F501868197819A838983FE01799684E175
:101AC000DF011D928A95E9F72B962CAD3DAD4EAD09
:101AD0005FAD2B9729A73AA74BA75CA72114310428
:101AE00009F446C0F401FE96208131814281538180
:101AF000F40182AD93ADA4ADB5AD281739074A07FF
:101B00005B07B1F5D50114964D915C911597640F63
:101B1000751F1896ED91FC91199784819581A68186
:101B2000B7819C018B839C83AD83BE83285F3F4F2D
:101B3000E20FF31FD5011996FC93EE931897E61B5D
:101B4000F70BF7FD06C04E0F5F1F19965C934E937F
:101B500018973C832B83F401FE9680819181A281AA
:101B6000B3810197A109B10980839183A283B383D3
:101B7000C50164E170E08E010F5F1F4FA8019E0157
:101B80002F5E3F4F0E94B70A90E0009709F08AC18C
:101B90008D8D9E8DAF8DB8A10C96A11DB11D8D8F21
:101BA0009E8FAF8FB8A3C50164E070E0A8019E01CD
:101BB000275F3F4F0E94B70AE82FF0E0FAABE9AB8E
:101BC000EF2B09F06DC18D8D9E8DAF8DB8A1049660
:101BD000A11DB11D8D8F9E8FAF8FB8A38E01035DA8
:101BE0001F4F49855A858B859C85B8010E946102EB
:101BF0006F8578896115710551F029853A85200F27
:101C0000311F4D855E85CB01B9010E9461021D82A5
:101C10001E821F82188627962EAD3FAD2797220F72
:101C2000331F23963FAF2EAF2397AE014B5F5F4F1D
:101C30002D965FAF4EAF2D97D4C0C901880F991F65
:101C4000880F991FF401A085B185A80FB91FED91E8
:101C5000FC911197E081EE2309F4B8C0E33009F458
:101C6000B5C01296ED91FC91139723962EAD3FAD22
:101C70002397E20FF31F408051804114510409F46F
:101C8000A5C089A19AA1ABA1BCA10196A11DB11DBE
:101C900089A39AA3ABA3BCA3C50164E070E0AE0125
:101CA0004F5F5F4F9E01275F3F4F0E94B70A90E052
:101CB000009709F0F7C08D8D9E8DAF8DB8A1049669
:101CC000A11DB11D8D8F9E8FAF8FB8A349855A85F9
:101CD0008B859C852C966FAD2C972D967FAD2D977F
:101CE0000E9461026F8578896115710571F02985FF
:101CF0003A8545E050E04C0F5D1F240F351F4D85A0
:101D00005E85CB01B9010E946102CC24DD247601FD
:101D10006624772450C0D20114960D911C9115971A
:101D2000060D171DF80162817381C501AE014F5F79
:101D30005F4F9E01275F3F4F0E94B70A90E00097D8
:101D400009F0B0C0D80112962D913C911397442709
:101D500037FD4095542F8D8D9E8DAF8DB8A1820F8C
:101D6000931FA41FB51F8D8F9E8FAF8FB8A3F8014F
:101D70006081718149855A858B859C850E946102AD
:101D80006F8578896115710569F0D8012D913C91B5
:101D900089859A85280F391F4D855E85CB01B9014C
:101DA0000E9461020894C11CD11CE11CF11CE4E0FA
:101DB000F0E06E0E7F1EF20180819181A281B381DD
:101DC000C816D906EA06FB060CF4A5CF8D819E81C4
:101DD000AF81B8850196A11DB11D8D839E83AF8310
:101DE000B8872D813E814F815885F401848195818A
:101DF000A681B781281739074A075B070CF41DCF66
:101E000089A19AA1ABA1BCA10097A105B10509F4D4
:101E100047C08AE190E0A0E0B0E0898F9A8FAB8F55
:101E2000BC8F27962EAD3FAD2797C901AA2797FDF6
:101E3000A095BA2F8DA39EA3AFA3B8A78E01075E6E
:101E40001F4F49895A898B899C89B8010E94610278
:101E50006F89788D6115710551F029893A89200FB4
:101E6000311F4D895E89CB01B9010E9461028981D0
:101E70009A81D50117969C938E9316971D921C926A
:101E80002328E9F0F401FE9680819181A281B3813B
:101E90000196A11DB11D80839183A283B3830FC0DE
:101EA00089A99AA9232859F4892B49F081E090E067
:101EB000F40195A784A785E090E0938B828BC45BA7
:101EC000DF4F0FB6F894DEBF0FBECDBFCF91DF91CD
:101ED0001F910F91FF90EF90DF90CF90BF90AF9048
:101EE0009F908F907F906F905F904F903F902F903A
:101EF00008952F923F924F925F926F927F928F92AE
:101F00009F92AF92BF92CF92DF92EF92FF920F9388
:101F10001F93DF93CF93CDB7DEB768970FB6F894D2
:101F2000DEBF0FBECDBFDC011496ED91FC9115977D
:101F30000190F081E02D80859185988F8F8BA28113
:101F4000B381BE8BAD8BFB0181919191A191B19138
:101F500089839A83AB83BC8366247724430165C05D
:101F60009E012B5F3F4FAF0180E1DA010D90AD0183
:101F7000D9010D929D018150C1F730E1432E512CC2
:101F80004E0E5F1E8D819E8123E0880F991F2A953A
:101F9000E1F7EF89F88DA281B381A80FB91F2D90C9
:101FA0003C901197E989FA89EE0FFF1F8D899E8970
:101FB000E80FF91F0190F081E02D14968D919C910E
:101FC0001597892B19F481E090E002C082E090E03F
:101FD0008E9F70018F9FF00C9E9FF00C11240027A4
:101FE000F7FC0095102F2D853E854F855889C80137
:101FF000B7010E94B8325B016C0129853A854B8597
:102000005C85C801B7010E94B8329101260F371FC5
:10201000C901B201A5010E946102F201EA0DFB1D96
:102020000894611C711C811C911C89819A81AB816F
:10203000BC81681679068A069B060CF491CF6896D7
:102040000FB6F894DEBF0FBECDBFCF91DF911F91C9
:102050000F91FF90EF90DF90CF90BF90AF909F9047
:102060008F907F906F905F904F903F902F9008954A
:10207000CF93DF9324E430E0629FE001639FD00DB3
:10208000729FD00D1124CA54DC4F8AA99BA90097D6
:1020900021F00E9409021BAA1AAA8EA99FA90097E3
:1020A00021F00E9409021FAA1EAA1B8A1A8A1E8AF0
:1020B0001F8A188E198E1A8E1B8E1C8E1D8E1E8ED8
:1020C0001F8E18A219A281E090E09BA38AA31DA2F3
:1020D0001CA280E090E0A0E0B0E08EA39FA3A8A7A0
:1020E000B9A71BA61AA61DA61CA61EA61FA618AA3F
:1020F00019AA1BAA1AAA1DAA1CAA1FAA1EAA19AEAF
:1021000018AE1AAE1BAE1CAE1DAEFE01FE961082BE
:10211000118212821382FE01EE5BFF4F1182108248
:10212000DF91CF9108952F923F924F925F926F92DD
:102130007F928F929F92AF92BF92CF92DF92EF9257
:10214000FF920F931F93DF93CF93CDB7DEB7AC977A
:102150000FB6F894DEBF0FBECDBF98A38F8F8B0153
:1021600029A33AA34BA35CA3FB0181919191A19177
:10217000B191AF01BC0189839A83AB83BC8329A150
:102180003AA184E490E0289FF001299FF00D389F48
:10219000F00D11249F012A543C4F3EA32DA3D901D9
:1021A00055967C936E9354979F0124533C4FD801CE
:1021B00014964D905D906D907C901797D9014D923B
:1021C0005D926D927C921397BA016C5F7F4F9F0175
:1021D00020533C4FDA0114964D905D906D907C90A9
:1021E0001797D9014D925D926D927C921397AB0136
:1021F0004C5F5F4F9F012C523C4FDB0114964D907A
:102200005D906D907C901797D9014D925D926D9283
:102210007C921397EC51FC4FDA0114964D905D902F
:102220006D907C9017974082518262827382FA018E
:102230003896FE8FED8F0DA11EA1025D1F4FC201CA
:10224000141415040CF0C3C0880F991F880F991F30
:102250000E945F019C018DA19EA1C296ADA1BEA16D
:10226000D3963C932E93D297232B09F427C1222493
:10227000332421011A8E198E18A70FA39AA789A7B4
:10228000D496BCA7ABA788C0E9A5FAA50190F081B8
:10229000E02D298D3A8DE20FF31FFC8FEB8FDE01CD
:1022A0001996ED8DFE8D80E101900D928150E1F740
:1022B000AF8DB8A11496ED91FC91159720813181D5
:1022C000D9011696ED91FC91179789859A8553E06F
:1022D000880F991F5A95E1F7A281B381A80FB91F02
:1022E0006D907C9011978D899E89880F991FF901B7
:1022F00022813381280F391FF901408151811496C1
:102300008D919C911597892B19F481E090E002C082
:1023100082E090E02D8D3E8D205F3F4F3E8F2D8FD0
:10232000849F7001859FF00C949FF00C112400276E
:10233000F7FC0095102F29893A894B895C89C801DF
:10234000B7010E94B8324B015C016B012D853E85BF
:102350004F855889C801B7010E94B832660E771EB2
:10236000AB8DBC8D11967C926E9213969C928E9240
:102370001297EBA5FCA580819181C80ED91ED18250
:10238000C0820894211C311C411C511C298D3A8D9E
:102390002C5F3F4F3A8F298FEFA1F8A58081918163
:1023A000A281B381281639064A065B060CF46CCF6D
:1023B000ADA1BEA1D4968D919C91D5970E945F014D
:1023C000EDA1FEA197AB86AB009709F477C0AD8D68
:1023D000BE8D2C9111963C91119712964C911297AB
:1023E00013965C912D833E834F835887C901DA0190
:1023F000AC01BD01411551056105710539F0A0E041
:10240000B0E0423051056105710511F4A1E0B0E082
:1024100029A13AA184E490E0289FF001299FF00DC2
:10242000389FF00D1124EA54FC4FB3A3A2A315A2C8
:1024300014A2415050406040704042305105610547
:10244000710520F481E090E095A384A384E490E0FA
:10245000E9A1FAA1E89F9001E99F300DF89F300DA6
:102460001124A90144525C4FED8DFE8D848195812C
:10247000A681B781FA0180839183A283B383F90196
:10248000EA54FC4F268D378D40A151A157FF10C053
:1024900088279927DC01821B930BA40BB50B82AF15
:1024A00093AFA4AFB5AF168E178E10A211A204C0C1
:1024B00012AE13AE14AE15AE80E007C069A17AA1CA
:1024C0008BA19CA10E94381081E0AC960FB6F894C5
:1024D000DEBF0FBECDBFCF91DF911F910F91FF9057
:1024E000EF90DF90CF90BF90AF909F908F907F90B4
:1024F0006F905F904F903F902F9008959B01AC019B
:1025000084E490E0289FF001299FF00D389FF00DA2
:102510001124EA54FC4F80910703882339F084E4A6
:10252000DF011D928A95E9F7109207031482158244
:10253000168217821186108613861286118A108AD7
:1025400017861686CA01B9010E94381008952F9285
:102550003F924F925F926F927F928F929F92AF9233
:10256000BF92CF92DF92EF92FF920F931F93DF9370
:10257000CF9300D00F92CDB7DEB73B014C015A8309
:10258000498384E490E0689E7001699EF00C789E17
:10259000F00C112486EB93E0E80EF91EF70184811C
:1025A0009581A681B7810097A105B10509F486C080
:1025B000AA24BB2465014424552435C0E40DF51D2F
:1025C00032802380232D322DC9019C838B8300E030
:1025D00010E017C0AB81BC81ED91FC91309751F0B8
:1025E000848195810E940902EB81FC818081918127
:1025F0000E9409020F5F1F4F8B819C8102969C8372
:102600008B83A981BA810A171B0724F3832D922D8E
:102610000E9409020894A11CB11CC11CD11CE4E059
:10262000F0E04E0E5F1ED70114962D913D914D9115
:102630005C9117971896ED91FC911997A216B30625
:10264000C406D5060CF4BACFCF010E940902F701E7
:1026500082859385892BF1F000E010E0CC24DD2405
:102660000CC0EC0DFD1D848195810E9409020F5F55
:102670001F4F8EE090E0C80ED91ED7011A96ED913B
:10268000FC911B9789819A810817190754F3CF0190
:102690000E940902D70150968D919C9151970E94FA
:1026A0000902F701868597850E940902C401B301DA
:1026B0000E943810C401B3010E947E120F900F9047
:1026C0000F900F90CF91DF911F910F91FF90EF909E
:1026D000DF90CF90BF90AF909F908F907F906F9042
:1026E0005F904F903F902F90089524E430E0629FD8
:1026F000F001639FF00D729FF00D1124EA54FC4F1E
:10270000138A128A0E94A71208954F925F926F92C5
:102710007F928F929F92AF92BF92CF92DF92EF9271
:10272000FF920F931F93DF93CF9300D00F92CDB7FB
:10273000DEB75C0149835A836B837C83290184E47F
:1027400090E0489F8001499F100D589F100D112463
:102750000A541C4FF801828993890497029708F064
:10276000B4C0F5011182108213821282F80115861D
:102770001486882499246624772460C0F801428551
:102780005385460D571DFA0180819181892B09F0EF
:102790004EC0C084D184E280F38066817781F801E5
:1027A000848595859C01A3E0220F331FAA95E1F74C
:1027B000A089B189A20FB31F880F991F268537857D
:1027C000280F391FF90191828082F801848595854F
:1027D0000196958784871396DC92CE921297FA0120
:1027E00073876287C616D70670F46C197D09119637
:1027F0007C936E9315961C921E92149717961C92BA
:102800001E92169714C0FA0184819581E80EF91E74
:10281000EC18FD081196FC92EE92681B790B159648
:102820007C936E93149717969C938E9316970894A7
:10283000811C911C8EE090E0680E791E8414950432
:102840000CF49CCFF80184859585F50191838083F4
:10285000F80120893189F50133832283F801268527
:102860003785F50135832483892BB9F5F8018289F1
:102870009389059791F51092B503828D938DA48D60
:10288000B58DAE014F5F5F4F8F5F9F4FAF4FBF4F13
:1028900071F480E290E064E070E00E9439036981A5
:1028A0007A818B819C81A2010E94751316C08FE1F1
:1028B00090E064E070E00E943903F80113A612A6CC
:1028C00081E090E0938B828B08C0F8011586148616
:1028D000F50111821082138212820F900F900F90D7
:1028E0000F90CF91DF911F910F91FF90EF90DF90AC
:1028F000CF90BF90AF909F908F907F906F905F90A0
:102900004F9008952F923F924F925F926F927F92D5
:102910008F929F92AF92BF92CF92DF92EF92FF92EF
:102920000F931F93DF93CF93CDB7DEB7E6970FB624
:10293000F894DEBF0FBECDBF98AB8FA77AAB69AB63
:102940007A010BAB1CAB2DAB3EAB84E490E04BA902
:102950005CA9489F9001499F300D589F300D11246C
:102960002A543C4F3AA729A78BA99CA9ADA9BEA977
:10297000F90180839183A283B383BC01CD0149A96E
:102980005AA90E94A712D7012D913D914D915C91BA
:10299000C901E9A5FAA5248335834683578364E0FA
:1029A00070E00E944301A9A5BAA519969C938E9345
:1029B0001897009709F04FC104C2E9A5FAA5008451
:1029C000F185E02D298D3A8DE20FF31FFEA7EDA7CB
:1029D0000BA51CA5F80181919191A191B1918F0155
:1029E0009C018D839E83AF83B887220F331FAFA5D1
:1029F000B8A9ED91FC91E20FF31F80819181EDA5C3
:102A0000FEA591838083EBA5FCA584819581A68199
:102A1000B78189839A83AB83BC8389A99AA962E031
:102A200070E00E944301ADA5BEA513969C938E93C2
:102A30001297009709F4C5C1F8013496FCA7EBA7DB
:102A40001F8E18A219A21AA2F7C0EBA5FCA58081BF
:102A50009181A281B3819C018D839E83AF83B887CE
:102A6000220F331FADA5BEA512960D911C91139791
:102A7000020F131F81E090E068E070E00E944301C4
:102A8000F801808391838D819E81880F991FADA568
:102A9000BEA51296ED91FC911397E80FF91F608087
:102AA00071806114710409F48CC10BA51CA50C5F25
:102AB0001F4FEBA5FCA52481358146815781C901B3
:102AC000D3012D933D934D935C93139764E070E095
:102AD0000E944301F30195838483009709F471C137
:102AE00098012C5F3F4F3CA72BA7222433242101C0
:102AF0001CA21BA28AC0D30114960D90BC91A02DDC
:102B0000EBA1FCA1AE0FBF1FBEA3ADA3DE011996C2
:102B1000EBA5FCA580E101900D928150E1F7AFA5F6
:102B2000B8A91496ED91FC91159720813181D901B6
:102B30001696ED91FC91179789859A8553E0880F39
:102B4000991F5A95E1F7A281B381A80FB91FED91A2
:102B5000FC911197F8A7EFA38D899E89880F991F83
:102B6000F90122813381280F391FF90140815181F8
:102B700014968D919C911597892B19F481E090E022
:102B800002C082E090E02BA53CA5205F3F4F3CA710
:102B90002BA7849F7001859FF00C949FF00C11244B
:102BA0000027F7FC0095102F29893A894B895C8909
:102BB000C801B7010E94B8325B016C012D853E85CA
:102BC0004F855889C801B7010E94B8324FA158A556
:102BD000460F571FADA1BEA111965C934E9313965D
:102BE000BC92AE921297F301868197818A0D9B1D4C
:102BF000978386830894211C311C411C511C2BA1F6
:102C00003CA12C5F3F4F3CA32BA3F301808191811A
:102C1000A281B381281639064A065B060CF46BCFF5
:102C20002F8D38A149A15AA12F5F3F4F4F4F5F4FC2
:102C30002F8F38A349A35AA389819A81AB81BC8184
:102C40002F8D38A149A15AA1281739074A075B07D8
:102C50000CF4FBCED8C0A7014C5F5F4F5CA74BA71D
:102C60001B8E1C8E1D8E1E8E1A8E198EE9A5FAA53E
:102C700084819581A681B7812B8D3C8D4D8D5E8D94
:102C8000281739074A075B070CF497CE89A99AA938
:102C90006EE070E00E944301A9A5BAA51A968C9334
:102CA0001A971B969C93442455242224332466248B
:102CB000772401E0C02ED12C5BC0EBA5FCA5808160
:102CC0009181A281B3819C0189839A83AB83BC8368
:102CD000A9A5BAA51A964D915C911B97790137FD6C
:102CE00070C08A01060D171DF801D182C08221151E
:102CF000310559F0C9010E945F01D80115969C93D6
:102D00008E931497009721F45CC0F8011582148209
:102D10002BA53CA52C5F3F4F3CA72BA7D8011396B2
:102D2000FC92EE92129714968D919C91159717969E
:102D30009C938E93169719969C938E9318971B9637
:102D40001C921E921A9720E030E089819A81AB8113
:102D5000BC810097A105B10511F021E030E0420EE1
:102D6000531E0894211C311CEEE0F0E06E0E7F1E15
:102D700029A93AA9221633060CF49FCFA9A5BAA512
:102D80001D961C921E921C97C20113E0880F991F7A
:102D90001A95E1F70E945F01E9A5FAA5918B808B56
:102DA000009779F0C201880F991F0E945F01A9A5C1
:102DB000BAA51F969C938E931E97009711F080E002
:102DC00009C06BA97CA98DA99EA949A95AA90E94ED
:102DD000A71281E0E6960FB6F894DEBF0FBECDBF16
:102DE000CF91DF911F910F91FF90EF90DF90CF90E7
:102DF000BF90AF909F908F907F906F905F904F901B
:102E00003F902F9008952B8D3C8D4D8D5E8D2F5FC3
:102E10003F4F4F4F5F4F2B8F3C8F4D8F5E8F498DB4
:102E20005A8D4C5F5F4F5A8F498F20CF2F923F9220
:102E30004F925F926F927F928F929F92AF92BF92CA
:102E4000CF92DF92EF92FF920F931F93DF93CF9376
:102E5000CDB7DEB72F970FB6F894DEBF0FBECDBF4C
:102E60007C016B01DB0111968C91882309F4E6C18A
:102E70001A821B821C821D8219828EE7F7018083D1
:102E8000818383E085878687108A1786128A118A54
:102E9000D70153961D921D921D921C9256975796DC
:102EA0001C9237010894611C711C32E0432E512C96
:102EB0004E0C5F1C23E0822E912C8E0C9F1C9DE0FB
:102EC000A92EB12CAE0CBF1CFE013A96FF87EE87EF
:102ED00081E0282E312CC601BE016F5F7F4F21E0BB
:102EE00030E040E050E08E010E5F1F4F0E948B1ECD
:102EF000882309F0A4C18A819B81AC81BD8101979F
:102F0000A105B10551F0D70150961C921E921F9752
:102F100052961C921E92519791C1F7018785908914
:102F20000297039708F587899981882329F0178AE2
:102F3000F0E29F27998318C09D3729F09E3741F012
:102F4000933091F408C0E1E0D7015796EC93C3CFDA
:102F5000D7019C932BC0D70152961C921E92519779
:102F600050961C921E921F97F70187859089823098
:102F7000910509F446C08330910534F4009781F03F
:102F8000019709F0A8CF27C08430910509F4D6C075
:102F9000843091050CF463C0059709F09CCF12C1F1
:102FA00089818E3709F097CFD7018C9352967C9206
:102FB0006E92519753968D919D910D90BC91A02D3D
:102FC0000196A11DB11DF701838B948BA58BB68B48
:102FD000308A278680CF89818E3709F02AC1D701B0
:102FE0005196ED91FC9152978083F701138A148AD0
:102FF000158A168A82E090E0908B8787528A418AF0
:103000006ACFF70183899489A589B6890097A105BC
:10301000B10509F00EC189810188F289E02D819303
:10302000D7015296FC93EE93519753968D919D91B3
:103030000D90BC91A02D0196A11DB11DF701838BB0
:10304000948BA58BB68B0197A105B10509F043CFF1
:1030500083E090E0908B8787928A818AABC0F701EA
:1030600083899489A589B6890497A105B10508F0DB
:10307000E0C089810188F289E02D8193D7015296C1
:10308000FC93EE93519753968D919D910D90BC9129
:10309000A02D0196A11DB11DF701838B948BA58BEB
:1030A000B68B0497A105B10509F015CFD6012C9177
:1030B0001A861B861C861D86F40180819181A2815F
:1030C000B3818E839F83A887B987222389F4DE0189
:1030D0001696FE013D968D91808331978E859F8552
:1030E000A817B907C1F78A859B85AC85BD8504C043
:1030F0008E819F81A885B985F70183839483A583F9
:10310000B683138A148A158A168A0097A105B10519
:1031100049F084E090E0908B878787819085928B3F
:10312000818BD9CEE5E0F0E0D7015096FC93EE9389
:103130001F975296BC92AE925197CDCED70153961F
:103140002D913D914D915C91569713968D919D9146
:103150000D90BC91A02D281739074A075B0708F08E
:1031600068C08981D7015196ED91FC915297819366
:103170005296FC93EE93519753968D919D910D909D
:10318000BC91A02D0196A11DB11DF701838B948BDD
:10319000A58BB68B23813481458156818217930795
:1031A000A407B50709F097CE85E090E0908B87875C
:1031B000B28AA18AD70153961D921D921D921C922C
:1031C000569789CEF70183899489A589B689029794
:1031D000A105B10570F58981833059F50188F2891F
:1031E000E02D8193D7015296FC93EE93519753961D
:1031F0008D919D910D90BC91A02D0196A11DB11DA9
:10320000F701838B948BA58BB68B0297A105B10533
:1032100009F061CE86E090E0908B8787128A118A50
:10322000D70153961D921D921D921C92569780E0D5
:1032300006C0F701128A118A108A178681E02F963C
:103240000FB6F894DEBF0FBECDBFCF91DF911F91B7
:103250000F91FF90EF90DF90CF90BF90AF909F9035
:103260008F907F906F905F904F903F902F90089538
:103270006F927F928F929F92AF92BF92CF92DF9286
:10328000EF92FF920F931F93DF93CF93CDB7DEB7EB
:1032900060970FB6F894DEBF0FBECDBF6C015B0127
:1032A000DB0111968C91882309F4D4C08EE7F601D6
:1032B0008083818383E085878687108A1786128AB8
:1032C000118AD60153961D921D921D921C925697FB
:1032D00057961C92CB01B60122E030E040E050E06E
:1032E0000E94341F882309F0B5C0F60182818E3711
:1032F00029F0833019F08D3709F0C1C08DE7898737
:10330000D60112968C9190E289278A8722E030E0DC
:1033100040E050E0C501BE01675F7F4F0E94341F4F
:10332000882309F097C0F5012081F60183819481FB
:10333000A581B6818D839E83AF83B8872223A9F4AC
:10334000FE013896DE0111969E012C5F3F4F808171
:103350008D933197E217F307D1F789819A81AB8179
:10336000BC818D839E83AF83B887BE016B5F7F4F27
:10337000DE01199624E030E040E050E0EDE7FE2E5B
:1033800090E28E01085F1F4FFB0180818E3729F08C
:10339000833019F08D3709F078C0FD01F19289274B
:1033A00011968C93DF0111962F5F3F4F4F4F5F4F68
:1033B0006017710719F06F5F7F4FE6CF69E0862EC7
:1033C000912C8C0E9D1EC501B4010E94341F8823D0
:1033D00009F040C0EE24FF2487015DE7652E40E23E
:1033E000742E22C0D6011796ED91FC911897EE0D20
:1033F000FF1D80818E3729F0833019F08D3709F059
:1034000046C06986808187258A8722E030E040E0D7
:1034100050E0C501B4010E94341F8823D9F40894F8
:10342000E11CF11C011D111DF60183819481A58110
:10343000B681E816F9060A071B07A0F28DE090E0B6
:10344000C80ED91EC501B60122E030E040E050E0D0
:103450000E94341F60960FB6F894DEBF0FBECDBF3A
:10346000CF91DF911F910F91FF90EF90DF90CF9060
:10347000BF90AF909F908F907F906F9008958987B5
:1034800021E030E040E050E045CF8D9391CF898737
:1034900021E030E040E050E0BCCF80E00895FB0147
:1034A00020E0DC0111968D919C911297892B09F0F7
:1034B00021E0208380E0089510923E040895FC01ED
:1034C0008081089587E494E00895089508950F9306
:1034D0001F938C01FC01818192810E94471FF8019A
:1034E000128211821F910F910895CF93DF93C0E054
:1034F000D0E081E090E06AE470E00E944301FC01CA
:10350000009711F481E01DC0A0914104B0914204E4
:1035100080913F0490914004892BB1F41097A1F45D
:10352000F0934204E0934104F0934004E0933F049D
:10353000E85BFF4F118210822196C530D105C9F694
:1035400080E0DF91CF910895A85BBF4FED93FC938E
:10355000F0934204E0934104EBCF4F925F926F925D
:103560007F928F929F92AF92BF92CF92DF92EF9213
:10357000FF920F931F93DF93CF9300D0CDB7DEB7A9
:103580006C01562E472EF90158017A01433151053D
:1035900018F092E1E92EF12CF182E08200E010E0D7
:1035A0003E010894611C711C82E0882E912C8C0EC7
:1035B0009D1E35C01982C601B3010E94F21E8823E8
:1035C00009F052C08981882331F0C6010E949D1BF9
:1035D000882309F049C02091410430914204809130
:1035E0003F0490914004892BC1F4232BB1F4083C93
:1035F00011051CF40F5F1F4F12C00E94751A88231B
:1036000099F5C60160E070E040E050E0940102E00E
:1036100010E00E94AD1A882339F500E010E0809197
:103620003E04882321F082E0A816B10419F6C701F0
:10363000AA2797FDA095BA2F8093650490936604FE
:10364000A0936704B0936804A09264048091690415
:1036500090916A04652D742DA7010E94610282E693
:1036600094E0B6010E9438190F900F900F90CF91FF
:10367000DF911F910F91FF90EF90DF90CF90BF905F
:10368000AF909F908F907F906F905F904F90089534
:103690003F924F925F926F927F928F929F92AF92E2
:1036A000BF92CF92DF92EF92FF920F931F93DF931F
:1036B000CF930F920F92CDB7DEB76B014A0139015C
:1036C000FC01A180B2801A821982EE24FF242E010F
:1036D0000894411C511C3324339414C0B4016E0D62
:1036E0007F1DA6014E195F09C501920101E010E09E
:1036F0000E94AD1A882369F489819A81E80EF91E27
:1037000030923E04EC14FD044CF3F301D182C082EC
:1037100080E00F900F90CF91DF911F910F91FF905C
:10372000EF90DF90CF90BF90AF909F908F907F9061
:103730006F905F904F903F900895AF92BF92DF924D
:10374000EF92FF920F931F93DF93CF930F920F92FD
:10375000CDB7DEB75C018AE494E0B5010E9416178C
:10376000D82E882309F066C080914C04823019F469
:1037700010923E045FC06091510470915204E09039
:103780004D04F0904E0400913F041091400480914C
:103790004104909142040115110509F058C0892B8C
:1037A00009F055C00BC01092420410924104085B0E
:1037B0001F4FF8011182108208541040C801A70160
:1037C0000E946102005C1F4FC701AA2797FDA095C8
:1037D000BA2FF80181939193A193B1938F01108235
:1037E00011821282138204541040E0914504F0913A
:1037F00046048091430490914404892BB9F5309795
:10380000A9F51093460400934504109344040093D3
:103810004304085B1F4FF80111821082209141047C
:103820003091420480913F0490914004892B39F5F6
:10383000232B29F58D2D0F900F90CF91DF911F91A4
:103840000F91FF90EF90DF90BF90AF900895085BCD
:103850001F4FF801808191810854104090934004DB
:1038600080933F04892B09F0A2CF9DCFE85BFF4FE7
:10387000118300831093460400934504CACFC50109
:1038800060E070E040E050E09E012F5F3F4F02E0BB
:1038900010E00E94AD1AD82ECDCF8F929F92AF929A
:1038A000BF92CF92DF92EF92FF920F931F93DF931D
:1038B000CF930F920F92CDB7DEB76C015B017A0107
:1038C000922E832EFC0101811281209145043091BA
:1038D00046048091430490914404892B19F5232BCD
:1038E00009F51982C801BE016F5F7F4F0E94F21E69
:1038F000882309F0C4C08981882309F4E6C0C8017F
:103900000E949D1B882309F0BAC020914504309184
:1039100046048091430490914404892B19F4232B8D
:1039200009F4D3C0F601C180D28006C0C6010E944E
:103930009D1B882309F0A3C0009143041091440407
:103940000115110599F30C5B1F4FF801208131819E
:103950004281538104501040F801808191810054CC
:103960001040821B930BA816B90624F0F70191832F
:10397000808303C0F701B182A082200F311FF701BD
:1039800040815181892D982DB9010E946102F70172
:1039900020813181442737FD4095542FF801EC5B9D
:1039A000FF4F80819181A281B381280F391F4A1F67
:1039B0005B1F2083318342835383005C1F4FF801D8
:1039C00080819181A281B38100541040281739076A
:1039D0004A075B0709F052C040913F0450914004F0
:1039E000A0914104B09142044115510511F020E02D
:1039F00004C020E0109709F421E0005C1F4FF8019B
:103A000011921192119211921082118212821382DC
:103A1000E0914304F0914404809145049091460460
:103A20003097E1F5892BD1F50AC010924604109227
:103A30004504E85BFF4F11821082E854F040452BAB
:103A4000D9F51097C9F5F0934204E0934104F0933F
:103A50004004E0933F04E85BFF4F11821082222371
:103A600069F0C60160E070E040E050E09E012F5F29
:103A70003F4F02E010E00E94AD1A01C080E00F90BD
:103A80000F90CF91DF911F910F91FF90EF90DF90FA
:103A9000CF90BF90AF909F908F900895E85BFF4FBD
:103AA00080819181E854F0409093440480934304D2
:103AB000892B09F0BECFB9CFA85BBF4FED93FC9324
:103AC000F0934204E0934104C6CFF70111821082C3
:103AD000D5CF1F930DC01092420410924104E85BB1
:103AE000FF4F11821082E854F040CF010E9409027A
:103AF000E0913F04F0914004809141049091420490
:103B0000309709F04BC0892B09F048C00DC01092C6
:103B1000460410924504E85BFF4F11821082E8547E
:103B2000F040CF010E940902E0914304F091440467
:103B300080914504909146043097F1F5892BE1F589
:103B400080915104909152040E94090218E1EAE424
:103B5000F4E0DF01812F1D928A95E9F780916904D5
:103B600090916A040E940902E2E6F4E0DF011D92EE
:103B70001A95E9F7109246041092450410924404F5
:103B80001092430410924204109241041092400497
:103B900010923F0410923E041F910895E85BFF4F7E
:103BA00080819181E854F0409093400480933F04D9
:103BB000892B09F094CF8FCFE85BFF4F80819181F3
:103BC000E854F0409093440480934304892B09F017
:103BD000A2CF9DCF8F929F92AF92BF92CF92DF9252
:103BE000EF92FF920F931F93CF93DF935C016B01D2
:103BF000942E852E842F952F9C01E90101E010E081
:103C00000FC08A819B810F5F1F4F009741F06BE3CC
:103C100072E00E947102009711F41B821A822296B0
:103C20000C151D0574F381E0F50180830E94831E4D
:103C3000EC010097C9F10E94691D80E490E00E94A8
:103C40005F0190936A0480936904009759F120E41E
:103C5000E22EF12C012D112DE0926B04F0926C04F8
:103C600000936D0410936E0480E490E00E945F0165
:103C700090935204809351040097A1F0E092530472
:103C8000F092540400935504109356040E94751A40
:103C9000882341F4CE01B601492D582D0E94671F9B
:103CA000882311F0C0E0D0E0F501D283C183CD2B91
:103CB00019F42EE332E002C020E030E0C901DF91C8
:103CC000CF911F910F91FF90EF90DF90CF90BF9019
:103CD000AF909F908F9008950F931F93CF93DF9392
:103CE0008C01FC01C181D281209741F00E94691DA5
:103CF000CE010E94471FF80112821182DF91CF91FD
:103D00001F910F91089581E080937A0410927B04B3
:103D10008AE794E008958F929F92AF92BF92CF92DC
:103D2000DF92EF92FF920F931F93CF93DF935B018C
:103D300069017A014801F80110821182128213820E
:103D4000FC0181818823C9F1E0917C04F0917D041C
:103D50008285882331F1E90190E08217930708F406
:103D6000EC01238530E02E5F3F4F2E0F3F1FC50132
:103D7000B901AE010E946102E0917C04F0917D04E2
:103D800082858C1B828783858C0F8387AC0EBD1E3A
:103D9000CE01A0E0B0E0A7019601281B390B4A0B29
:103DA0005B0BE0917C04F0917D0480819181B501F1
:103DB0000E94A51F8F5F9F4F11F481E006C0F401A0
:103DC000C082D182E282F38280E0DF91CF911F91A5
:103DD0000F91FF90EF90DF90CF90BF90AF909F90AA
:103DE0008F9008950F931F93DF93CF930F920F92AD
:103DF000CDB7DEB78B01DC0111968C918823E1F001
:103E00001A821982E0917C04F0917D0482858823D6
:103E100021F081E0FB0180831FC0DB011C928191B6
:103E20009191BF0148E050E09E012F5F3F4F0E94FB
:103E3000BD2C8F5F9F4F11F481E00FC089819A8163
:103E4000892B51F081E0F8018083E0917C04F091AE
:103E50007D0489818287138680E00F900F90CF9137
:103E6000DF911F910F910895FC018181882361F0FA
:103E7000E0917C04F0917D04808191810E94FA1F81
:103E800020E08F5F9F4F09F421E0822F0895CF93A8
:103E9000DF93FC0181818823B1F01182E0917C04E1
:103EA000F0917D04808191810E94BA2CEC01809177
:103EB0007C0490917D04009711F00E94090280E03B
:103EC000CF5FDF4F09F481E0DF91CF910895CF926A
:103ED000DF92EF92FF920F931F93CF93DF938C01AA
:103EE0007B016A01FC018181882329F581E090E052
:103EF0006CE070E00E944301EC0190937D0480939C
:103F00007C040097C1F01A861B8681E0F80181834A
:103F1000C701B6010E94062D99838883E0917C0435
:103F2000F0917D04808191818F5F9F4F11F080E03F
:103F300003C0F801118281E0DF91CF911F910F91B1
:103F4000FF90EF90DF90CF9008958F929F92AF9265
:103F5000BF92CF92DF92EF92FF920F931F93DF9366
:103F6000CF930F920F92CDB7DEB75C0179018A0132
:103F70006B0140E050E04E010894811C911C25C06B
:103F8000A801970180E0E81680E0F80681E00807C4
:103F900080E0180720F02FEF3FEF40E050E0C50130
:103FA000B601A90194010E94BD2CAC018FEF4F3FD7
:103FB000580781F029813A81C901A0E0B0E0E81AF0
:103FC000F90A0A0B1B0BC20ED31EE114F104010502
:103FD0001105B1F6CA010F900F90CF91DF911F919B
:103FE0000F91FF90EF90DF90CF90BF90AF909F9098
:103FF0008F9008958F929F92AF92BF92CF92DF924F
:10400000EF92FF920F931F93DF93CF930F920F9234
:10401000CDB7DEB75C0179018A016B0140E050E069
:104020004E010894811C911C25C0A801970180E0D5
:10403000E81680E0F80681E0080780E0180720F025
:104040002FEF3FEF40E050E0C501B601A901940118
:104050000E94F22CAC018FEF4F3F580781F029816D
:104060003A81C901A0E0B0E0E81AF90A0A0B1B0B7B
:10407000C20ED31EE114F10401051105B1F6CA0107
:104080000F900F90CF91DF911F910F91FF90EF90C4
:10409000DF90CF90BF90AF909F908F9008951F9228
:1040A0000F920FB60F920BB60F9211242F933F93DE
:1040B0004F938F939F93EF93FF938091C00082FD66
:1040C0001DC04091C6002091BE043091BF042F5FF7
:1040D0003F4F2F7330708091C0049091C104281716
:1040E000390771F0E091BE04F091BF04E258FB4F34
:1040F00040833093BF042093BE0402C08091C60069
:10410000FF91EF919F918F914F913F912F910F9040
:104110000BBE0F900FBE0F901F9018951F920F921D
:104120000FB60F920BB60F9211242F933F934F931C
:104130008F939F93EF93FF938091C80082FD1DC0E2
:104140004091CE0020914605309147052F5F3F4FAB
:104150002F733070809148059091490528173907D1
:1041600071F0E0914605F0914705EA5FFA4F408310
:10417000309347052093460502C08091CE00FF9101
:10418000EF919F918F914F913F912F910F900BBE87
:104190000F900FBE0F901F9018951F920F920FB6A1
:1041A0000F920BB60F9211242F933F934F938F933F
:1041B0009F93EF93FF938091D00082FD1DC04091AB
:1041C000D6002091CE053091CF052F5F3F4F2F7342
:1041D00030708091D0059091D1052817390771F082
:1041E000E091CE05F091CF05E257FA4F408330932E
:1041F000CF052093CE0502C08091D600FF91EF91AC
:104200009F918F914F913F912F910F900BBE0F90E7
:104210000FBE0F901F9018951F920F920FB60F921E
:104220000BB60F9211242F933F934F938F939F932D
:10423000EF93FF938091300182FD1DC040913601C4
:1042400020915606309157062F5F3F4F2F733070E5
:1042500080915806909159062817390771F0E0911E
:104260005606F0915706EA5EF94F408330935706A1
:104270002093560602C080913601FF91EF919F91E5
:104280008F914F913F912F910F900BBE0F900FBECA
:104290000F901F9018951F920F920FB60F920BB6AA
:1042A0000F9211242F933F938F939F93EF93FF933C
:1042B0002091020530910305809104059091050538
:1042C0002817390731F48091C1008F7D8093C10098
:1042D00014C0E0910405F0910505EE53FB4F2081D9
:1042E000809104059091050501968F7390709093CD
:1042F0000505809304052093C600FF91EF919F91DF
:104300008F913F912F910F900BBE0F900FBE0F908A
:104310001F9018951F920F920FB60F920BB60F9227
:1043200011242F933F938F939F93EF93FF932091AB
:104330008A0530918B0580918C0590918D05281709
:10434000390731F48091C9008F7D8093C90014C072
:10435000E0918C05F0918D05E65BFA4F208180910C
:104360008C0590918D0501968F73907090938D05BB
:1043700080938C052093CE00FF91EF919F918F91B8
:104380003F912F910F900BBE0F900FBE0F901F907B
:1043900018951F920F920FB60F920BB60F92112421
:1043A0002F933F938F939F93EF93FF932091120648
:1043B000309113068091140690911506281739073D
:1043C00031F48091D1008F7D8093D10014C0E091B1
:1043D0001406F0911506EE52FA4F208180911406D2
:1043E0009091150601968F739070909315068093A7
:1043F00014062093D600FF91EF919F918F913F91EA
:104400002F910F900BBE0F900FBE0F901F9018951D
:104410001F920F920FB60F920BB60F9211242F938B
:104420003F938F939F93EF93FF9320919A06309140
:104430009B0680919C0690919D062817390731F4C0
:10444000809131018F7D8093310114C0E0919C06F1
:10445000F0919D06E65AF94F208180919C0690913B
:104460009D0601968F73907090939D0680939C0695
:1044700020933601FF91EF919F918F913F912F9162
:104480000F900BBE0F900FBE0F901F901895AF921C
:10449000BF92DF92EF92FF920F931F93CF93DF9320
:1044A000EC017A018B01DD24403081EE580780E079
:1044B000680780E0780711F0DD24D39491E0A92EFD
:1044C000B12CEC89FD89DD2069F0C50108A002C08E
:1044D000880F991F0A94E2F7808360E079E08DE30A
:1044E00090E005C0108260E874E88EE190E0A801D9
:1044F00097010E94F632215030404040504056957E
:1045000047953795279580E12030380720F0DD204A
:1045100011F0DD24D6CFE889F9893083EA89FB8957
:10452000208319A2EE89FF89408121E030E0C90192
:104530000C8C02C0880F991F0A94E2F7482B408325
:10454000EE89FF894081C9010D8C02C0880F991F37
:104550000A94E2F7482B4083EE89FF894081C90124
:104560000E8C02C0880F991F0A94E2F7482B4083F3
:10457000EE89FF8980810F8C02C0220F331F0A94BD
:10458000E2F7209528232083DF91CF911F910F918F
:10459000FF90EF90DF90BF90AF900895DC011C96E4
:1045A000ED91FC911D97E05CFF4F2191319180814D
:1045B0009181281B390B2F733070C9010895DC01DC
:1045C0001C96ED91FC911D97E05CFF4F208131819D
:1045D000E054F040DF01AE5BBF4F8D919C9111978D
:1045E0002817390719F42FEF3FEF07C08D919C91E1
:1045F000E80FF91F8081282F30E0C9010895DC0100
:104600001C96ED91FC911D97E05CFF4F208131815C
:10461000E054F040DF01AE5BBF4F8D919C9111974C
:104620002817390719F42FEF3FEF10C08D919C9197
:104630001197E80FF91F20818D919C911197019698
:104640008F73907011969C938E9330E0C9010895FA
:10465000DC0191968C919197882339F05496ED91D5
:10466000FC915597808186FFF9CF91961C92089511
:10467000CF93DF93EC01EE85FF85E05CFF4F208157
:104680003181E054F0402F5F3F4F2F733070DF01D6
:10469000AE5BBF4F8D919C91119728173907D1F3CD
:1046A000E05CFF4F80819181E054F040E80FF91FFA
:1046B0006083EE85FF85E05CFF4F31832083EE89C8
:1046C000FF89208181E090E00F8C02C0880F991F44
:1046D0000A94E2F7282B208381E089A3EC89FD89E5
:1046E00080818064808381E090E0DF91CF910895A4
:1046F0001F931092A1061092A00628EE33E040E02E
:1047000050E02093A2063093A3064093A406509352
:10471000A50665E973E070939F0660939E068EE799
:1047200094E09093AB068093AA0682EC94E0909379
:10473000AD068093AC0685EC90E09093AF06809335
:10474000AE0684EC90E09093B1068093B00680ECC6
:1047500090E09093B3068093B20681EC90E0909342
:10476000B5068093B40682EC90E09093B7068093F0
:10477000B60686EC90E09093B9068093B80614E0F4
:104780001093BA06B3E0B093BB06A7E0A093BC06B3
:10479000F5E0F093BD06E1E0E093BE061092C3069B
:1047A0001092C2062093C4063093C5064093C606F5
:1047B0005093C7067093C1066093C00686E095E0EB
:1047C0009093CD068093CC068AE495E09093CF0633
:1047D0008093CE068DEC90E09093D1068093D00626
:1047E0008CEC90E09093D3068093D20688EC90E016
:1047F0009093D5068093D40689EC90E09093D706E9
:104800008093D6068AEC90E09093D9068093D806E0
:104810008EEC90E09093DB068093DA061093DC0632
:10482000B093DD06A093DE06F093DF06E093E0068A
:104830001092E5061092E4062093E6063093E70610
:104840004093E8065093E9067093E3066093E2060E
:104850008EE895E09093EF068093EE0682ED95E06A
:104860009093F1068093F00685ED90E09093F30627
:104870008093F20684ED90E09093F5068093F40621
:1048800080ED90E09093F7068093F60681ED90E03E
:104890009093F9068093F80682ED90E09093FB06E2
:1048A0008093FA0686ED90E09093FD068093FC06D7
:1048B0001093FE06B093FF06A0930007F093010744
:1048C000E09302071092070710920607209308074B
:1048D0003093090740930A0750930B07709305071D
:1048E0006093040786E196E0909311078093100788
:1048F0008AE596E0909313078093120785E391E091
:10490000909315078093140784E391E09093170721
:104910008093160780E391E090931907809318071E
:1049200081E391E090931B0780931A0782E391E063
:1049300090931D0780931C0786E391E090931F07D7
:1049400080931E0710932007B0932107A09322079E
:10495000F0932307E09324071F91089585EA93E0DD
:104960009093270780932607109228071092290713
:1049700010922A0710922B0708958F929F92AF9260
:10498000BF92CF92DF92EF92FF920F931F93CF933C
:10499000DF934C016B017C01AA24BB24C0E0D0E072
:1049A000C601F70162814AE050E00E94C0258C01F7
:1049B000C6016EE20E942925080F191FA00EB11E24
:1049C00021960894E11CF11CC330D10549F7C601BA
:1049D000F40165814AE050E00E94C0259501280F4E
:1049E000391FC901DF91CF911F910F91FF90EF9077
:1049F000DF90CF90BF90AF909F908F900895CF920F
:104A0000DF92EF92FF920F931F93CF93DF937C017E
:104A10006B018A01C0E0D0E00FC0D6016D916D013D
:104A2000D701ED91FC910190F081E02DC70119951E
:104A3000C80FD91F015010400115110571F7CE01A3
:104A4000DF91CF911F910F91FF90EF90DF90CF906A
:104A50000895DC01ED91FC910190F081E02D199514
:104A60000895CF93DF93EC016115710519F420E0EF
:104A700030E00FC0DB010D900020E9F71197A61B75
:104A8000B70BE881F9810280F381E02DAD01199522
:104A90009C01C901DF91CF9108954F925F927F925F
:104AA0008F929F92AF92BF92CF92DF92EF92FF923E
:104AB0000F931F93DF93CF93CDB7DEB7A1970FB6B8
:104AC000F894DEBF0FBECDBF2C01742ECB01223077
:104AD00008F42AE019A231E2C32ED12CCC0EDD1E3F
:104AE000822E9924AA24BB24672D752FA501940139
:104AF0000E94F63279018A01C801B701A50194012B
:104B00000E94B832472D461B0894C108D1084A308C
:104B100014F4405D01C0495CF6014083E114F104E6
:104B20000105110521F07E2C5F2DC801DDCFC201EA
:104B3000B6010E943125A1960FB6F894DEBF0FBED4
:104B4000CDBFCF91DF911F910F91FF90EF90DF903C
:104B5000CF90BF90AF909F908F907F905F904F903D
:104B60000895DC012115310541F4ED91FC9101908E
:104B7000F081E02D642F199508950E944D25089528
:104B8000EF92FF920F931F939A01E62EFF2400E00D
:104B900010E0B801A7010E94B1251F910F91FF906D
:104BA000EF9008951F920F920FB60F920BB60F92CF
:104BB00011242F933F934F935F936F937F938F9322
:104BC0009F93AF93BF93EF93FF93809130079091A2
:104BD0003107892B29F0E0913007F09131071995C1
:104BE000FF91EF91BF91AF919F918F917F916F91C5
:104BF0005F914F913F912F910F900BBE0F900FBE81
:104C00000F901F9018951F920F920FB60F920BB630
:104C10000F9211242F933F934F935F936F937F9342
:104C20008F939F93AF93BF93EF93FF93809132073E
:104C300090913307892B29F0E0913207F0913307E7
:104C40001995FF91EF91BF91AF919F918F917F91B6
:104C50006F915F914F913F912F910F900BBE0F90ED
:104C60000FBE0F901F9018951F920F920FB60F92C4
:104C70000BB60F9211242F933F934F935F936F9333
:104C80007F938F939F93AF93BF93EF93FF93809105
:104C9000340790913507892B29F0E0913407F09182
:104CA00035071995FF91EF91BF91AF919F918F912A
:104CB0007F916F915F914F913F912F910F900BBE1C
:104CC0000F900FBE0F901F9018951F920F920FB666
:104CD0000F920BB60F9211242F933F934F935F9334
:104CE0006F937F938F939F93AF93BF93EF93FF93B4
:104CF0008091360790913707892B29F0E09136078C
:104D0000F09137071995FF91EF91BF91AF919F9166
:104D10008F917F916F915F914F913F912F910F9064
:104D20000BBE0F900FBE0F901F9018951F920F9201
:104D30000FB60F920BB60F9211242F933F934F9300
:104D40005F936F937F938F939F93AF93BF93EF93F3
:104D5000FF9380912C0790912D07892B29F0E091EA
:104D60002C07F0912D071995FF91EF91BF91AF910D
:104D70009F918F917F916F915F914F913F912F9173
:104D80000F900BBE0F900FBE0F901F9018951F92A3
:104D90000F920FB60F920BB60F9211242F933F93E1
:104DA0004F935F936F937F938F939F93AF93BF9333
:104DB000EF93FF9380912E0790912F07892B29F075
:104DC000E0912E07F0912F071995FF91EF91BF9178
:104DD000AF919F918F917F916F915F914F913F9193
:104DE0002F910F900BBE0F900FBE0F901F90189534
:104DF0001F920F920FB60F920BB60F9211242F93A2
:104E00003F934F935F936F937F938F939F93AF9352
:104E1000BF93EF93FF938091380790913907892BC7
:104E200029F0E0913807F09139071995FF91EF913A
:104E3000BF91AF919F918F917F916F915F914F91B2
:104E40003F912F910F900BBE0F900FBE0F901F90B0
:104E500018951F920F920FB60F920BB60F92112456
:104E60002F933F934F935F936F937F938F939F9372
:104E7000AF93BF93EF93FF9380913A0790913B07D5
:104E8000892B29F0E0913A07F0913B071995FF91A2
:104E9000EF91BF91AF919F918F917F916F915F91B2
:104EA0004F913F912F910F900BBE0F900FBE0F901F
:104EB0001F9018952F923F924F925F926F927F9220
:104EC0008F929F92AF92BF92CF92DF92EF92FF921A
:104ED0000F931F93DF93CF93CDB7DEB73B014C0108
:104EE00019012A016E897F89888D998D6A197B093C
:104EF0008C099D09621A730A840A950AA401930118
:104F00000E94B832E218F30804091509A8019701B4
:104F10000E9418332A0D3B1D4C1D5D1DB901CA01AD
:104F2000CF91DF911F910F91FF90EF90DF90CF9085
:104F3000BF90AF909F908F907F906F905F904F90B9
:104F40003F902F9008951F920F920FB60F92112449
:104F50002F933F938F939F93AF93BF93809140077D
:104F600090914107A0914207B091430730914407C7
:104F70000196A11DB11D232F2D5F2D3720F02D5738
:104F80000196A11DB11D2093440780934007909383
:104F90004107A0934207B093430780913C0790914B
:104FA0003D07A0913E07B0913F070196A11DB11D9D
:104FB00080933C0790933D07A0933E07B0933F0733
:104FC000BF91AF919F918F913F912F910F900FBE05
:104FD0000F901F9018959FB7F89420913C0730913F
:104FE0003D0740913E0750913F0786B5A89B06C0FC
:104FF0008F3F21F02F5F3F4F4F4F5F4F9FBF542F89
:10500000432F322F2227280F311D411D511D82E0D1
:10501000220F331F441F551F8A95D1F7B901CA01CA
:1050200008959B01AC017FB7F89480913C07909163
:105030003D07A0913E07B0913F0766B5A89B05C00C
:105040006F3F19F00196A11DB11D7FBFBA2FA92F87
:10505000982F8827860F911DA11DB11D62E0880F32
:10506000991FAA1FBB1F6A95D1F7BC012DC0FFB7BE
:10507000F89480913C0790913D07A0913E07B09134
:105080003F07E6B5A89B05C0EF3F19F00196A11DAB
:10509000B11DFFBFBA2FA92F982F88278E0F911D02
:1050A000A11DB11DE2E0880F991FAA1FBB1FEA9541
:1050B000D1F7861B970B885E9340C8F22150304091
:1050C0004040504068517C4F211531054105510544
:1050D00071F60895789484B5826084BD84B581604A
:1050E00084BD85B5826085BD85B5816085BDEEE6F0
:1050F000F0E0808181608083E1E8F0E010828081CF
:1051000082608083808181608083E0E8F0E080813C
:1051100081608083E1EBF0E0808184608083E0EB5C
:10512000F0E0808181608083E1E9F0E0808182604D
:105130008083808181608083E0E9F0E0808181600C
:105140008083E1EAF0E080818260808380818160F9
:105150008083E0EAF0E0808181608083E1E2F1E039
:10516000808182608083808181608083E0E2F1E0E1
:10517000808181608083EAE7F0E0808184608083C1
:10518000808182608083808181608083808180686B
:1051900080831092C1000895CF93DF93482F50E091
:1051A000CA018A569E4FFC013491405B5E4FFA0162
:1051B0008491882369F190E0880F991FFC01EE5FCC
:1051C000FE4FA591B491FC01E45EFE4FC591D491D0
:1051D000662351F42FB7F8948C91932F90958923DF
:1051E0008C93888189230BC0623061F42FB7F894C7
:1051F0008C91932F909589238C938881832B88831E
:105200002FBF06C09FB7F8948C91832B8C939FBFC0
:10521000DF91CF910895893009F449C08A30A0F414
:10522000843051F1853040F4823079F1833000F5DB
:10523000813009F063C026C0873079F1883098F555
:10524000863009F05BC025C08D3009F442C08E3035
:1052500028F48B30B1F18C30C0F52DC0803109F4C9
:1052600042C0813109F445C08F3009F047C037C0D2
:10527000809180008F7703C0809180008F7D809324
:105280008000089584B58F7702C084B58F7D84BD7A
:1052900008958091B0008F7703C08091B0008F7D1A
:1052A0008093B0000895809190008F7707C080911F
:1052B00090008F7D03C080919000877F8093900045
:1052C00008958091A0008F7707C08091A0008F7D06
:1052D00003C08091A000877F8093A00008958091F3
:1052E00020018F7703C0809120018F7D8093200162
:1052F000089580912001877F809320010895FF9277
:105300000F931F93F62E482F50E0CA0184529E4FF0
:10531000FC012491CA018A569E4FFC011491405B06
:105320005E4FFA0104910023C9F0222319F0822F65
:105330000E940B29E02FF0E0EE0FFF1FE45EFE4F0E
:10534000A591B4919FB7F894FF2021F48C9110950A
:10535000812302C08C91812B8C939FBF1F910F9151
:10536000FF900895FC0180914507803390F480837D
:105370008F5F80934507815090E0FC01EE0FFF1F87
:10538000E80FF91FEA5BF84F88EB9BE0928381837B
:1053900008958FEF80830895FC0120812033B8F5B4
:1053A0008181992787FD909548E850E0481B590B6B
:1053B000440F551F440F551F6417750784F08281F1
:1053C000992787FD909548E552E0481B590B440FFB
:1053D000551F440F551F641775070CF4AB0142505D
:1053E0005040CA01AA2797FDA095BA2F880F991F90
:1053F000AA1FBB1F4FB7F89430E0F901EE0FFF1F53
:10540000E20FF31FEA5BF84F928381834FBF089549
:10541000AF92BF92CF92DF92EF92FF920F931F93C2
:10542000CF93DF93EC019B0182E0603278070CF0B0
:1054300048C077FF03C020E030E005C0653B710540
:1054400014F024EB30E000D00F92B901882777FDEB
:105450008095982F2981332727FD3095E8E8AE2ED7
:10546000B12CA21AB30AAA0CBB1CAA0CBB1CCC24DC
:10547000B7FCC094DC2CEA81FF27E7FDF09528E516
:1054800032E02E1B3F0B220F331F220F331F442706
:1054900037FD4095542FEDB7FEB721833283438308
:1054A000548320E030E040E050E004EBE02EF12CAB
:1054B000012D112D0E945A279B010F900F900F90E4
:1054C0000F90CE01B9010E94CC29DF91CF911F919D
:1054D0000F91FF90EF90DF90CF90BF90AF90089525
:1054E000CF92DF92EF92FF921F93CF93DF93EC0165
:1054F000162F7A0169018881803308F093C0862FC6
:1055000061E00E94CC28888190E0FC01EE0FFF1F33
:10551000E80FF91FEA5BF84F1F738081807C812BB5
:10552000808380E292E08E199F0964E070E00E941F
:10553000E332698380E699E08C199D0964E070E0AC
:105540000E94E3326A83A8818A2F6CE00E94D732DE
:10555000682F70E0AB01440F551F460F571F440FD3
:10556000551F440F551F20E030E0C901840F951FDF
:10557000FC01EE0FFF1FE80FF91FEA5BF84F808177
:1055800086FD44C02F5F3F4F2C30310571F753C06B
:105590001092800082E0809381001092850010922A
:1055A0008400B19A80916F00826080936F002EC05A
:1055B0006230710569F41092900082E0809391004E
:1055C000109295001092940088BB809371001EC0C9
:1055D0006330710569F41092A00082E08093A1000D
:1055E0001092A5001092A40089BB809372000EC097
:1055F000672B61F41092200182E0809321011092C8
:105600002501109224018ABB809373008A2F90E0B9
:10561000FC01EE0FFF1FE80FF91FEA5BF84F8081D6
:10562000806480838881DF91CF911F91FF90EF90FC
:10563000DF90CF9008956130710509F0B9CFA8CF00
:1056400040E252E020E639E00E94702A0895EF928D
:10565000FF920F931F93CF93DF938B017A01EC019D
:10566000DC01AA52B84F8C9187FF04C0FB01118264
:10567000108237C0AE01440F551F4C0F5D1F440F01
:10568000551F440F551F2C91332727FD3095240FAC
:10569000351F8091450790E02817390714F58C9144
:1056A000992787FD9095840F951FFC01EE0FFF1F32
:1056B000E80FF91FEA5BF84F808186FF12C08C91DA
:1056C000992787FD9095840F951FFC01EE0FFF1F12
:1056D000E80FF91FEA5BF84F80818F7360E00E944A
:1056E0007F29DE01AA52B84F8C918F5F8C93AE0157
:1056F000440F551F4C0F5D1F440F551F440F551F7E
:105700002C91332727FD3095240F351F80914507B5
:1057100090E0281739070CF04DC08C918C300CF0BC
:1057200049C0F801208131818C91992787FD90959E
:10573000840F951FFC01EE0FFF1FE80FF91FEA5BB6
:10574000F84F81819281280F391FF701318320831F
:105750008C91992787FD9095840F951FFC01EE0F82
:10576000FF1FE80FF91FEA5BF84F808186FF2AC010
:105770008C91992787FD9095840F951FFC01EE0F62
:10578000FF1FE80FF91FEA5BF84F80818F7361E01C
:105790000E947F2917C080E49CE904C0F801808141
:1057A00091810496F70191838083CA52D84F8FEF7D
:1057B000888308C0F80180819181049680549C49B7
:1057C00050F3ECCFDF91CF911F910F91FF90EF90AD
:1057D00008951F920F920FB60F920BB60F921124DD
:1057E0002F933F934F935F936F937F938F939F93E9
:1057F000AF93BF93EF93FF9380E090E064E271E09A
:1058000048E251E00E94272BFF91EF91BF91AF91A9
:105810009F918F917F916F915F914F913F912F91C8
:105820000F900BBE0F900FBE0F901F9018951F92F8
:105830000F920FB60F920BB60F9211242F933F9336
:105840004F935F936F937F938F939F93AF93BF9388
:10585000EF93FF9383E090E064EA70E048EA50E061
:105860000E94272BFF91EF91BF91AF919F918F9154
:105870007F916F915F914F913F912F910F900BBE50
:105880000F900FBE0F901F9018951F920F920FB69A
:105890000F920BB60F9211242F933F934F935F9368
:1058A0006F937F938F939F93AF93BF93EF93FF93E8
:1058B00082E090E064E970E048E950E00E94272B24
:1058C000FF91EF91BF91AF919F918F917F916F91D8
:1058D0005F914F913F912F910F900BBE0F900FBE94
:1058E0000F901F9018951F920F920FB60F920BB644
:1058F0000F9211242F933F934F935F936F937F9356
:105900008F939F93AF93BF93EF93FF9381E090E0CA
:1059100064E870E048E850E00E94272BFF91EF9187
:10592000BF91AF919F918F917F916F915F914F91B7
:105930003F912F910F900BBE0F900FBE0F901F90B5
:1059400018958AED97E00E94B229089593E0899F07
:10595000C00111248652984F70E00E94082A0895D1
:1059600093E0899FC00111248652984F70E00E94F5
:10597000202B089580E090E00895EF92FF920F931E
:105980001F93CF93DF93162F072F7A01E901198216
:1059900018828EE996E00E94CE22892BD1F0812FC9
:1059A000902F9C01890110C08EE996E00E94FF2291
:1059B0002FEF8F3F920741F0F80181938F0188818B
:1059C0009981019699838883888199818E159F0595
:1059D00058F380E090E0DF91CF911F910F91FF90FD
:1059E000EF900895EF92FF920F931F938A01790130
:1059F0008EE996E00E94FF24F7011183008380E086
:105A000090E01F910F91FF90EF9008950E946A28F7
:105A10008EE996E040E855E260E070E00E9447229F
:105A200004C08EE996E00E94FF228EE996E00E9473
:105A3000CE22892BB1F780E090E008952F923F921B
:105A40004F925F926F927F928F929F92AF92BF928E
:105A5000CF92DF92EF92FF920F931F93DF93CF933A
:105A600000D00F92CDB7DEB7809124089091250821
:105A7000A0912608B091270889839A83AB83BC83C1
:105A800060908403709085038090860390908703D4
:105A9000A0902808B0902908C0902A08D0902B0820
:105AA00020908003309081034090820350908303C4
:105AB000BC01CD01A40193010E9409327B018C013C
:105AC000C601B501A20191010E9409329B01AC01FE
:105AD000C801B7010E947A306093240870932508AA
